:0C800000F8B500BFF8BC08BC9E467047F5
:1080100008B5064B044613B10021AFF30080044BB2
:108020001B6803B19847204609F05AFC0000000085
:10803000045103000348044B834202D0034B03B1B5
:1080400018477047E81A0200E81A02000000000012
:108050000548064B1B1AD90F01EBA301491002D0AA
:10806000034B03B118477047E81A0200E81A0200F0
:108070000000000010B5064C237843B9FFF7DAFF83
:10808000044B13B10448AFF300800123237010BDEB
:10809000E81A020000000000681A010008B5054B4C
:1080A0001BB105490548AFF30080BDE80840FFF764
:1080B000CFBF00BF00000000EC1A0200681A0100E8
:1080C000A3F5803A704700BF174B002B08BF134B36
:1080D0009D46FFF7F5FF00218B460F461348144AD3
:1080E000121A09F02CF90E4B002B00D098470D4BBB
:1080F000002B00D098470020002104000D000D48FF
:10810000002802D00C48AFF3008009F0BDF9200030
:10811000290000F013F8FFF77BFF00BF0000080004
:10812000000000000000000000000000E81A02004B
:1081300020510300000000000000000008B500F01E
:10814000CBF8002008BD70477047704700B583B07A
:108150000023019305F060FB084B1B682BB9074B0C
:1081600001221A6001E000BF00BF019B002BFAD082
:1081700005F074FB03B05DF804FB00BF041B0200B4
:1081800008B502499320FFF7E1FF08BDD4190100AB
:1081900008B50249BE20FFF7D9FF08BDD419010078
:1081A00010B4054B1C1D04605C330B60822313600C
:1081B0005DF8044B704700BF041B020010B4064B6F
:1081C00003F51974046003F52F730B604FF4827389
:1081D00013605DF8044B7047041B020080B483B049
:1081E00000AF78600A4B00221A6004E0084B1B685D
:1081F0000133074A1360064B1B687A689A42F5D828
:1082000000BF00BF0C37BD465DF8047B704700BF60
:10821000D021020072B6FEE700B595B030220021F1
:1082200008A809F08CF800230393049305930693A0
:10823000079301931E4A116C41F080511164126C36
:1082400002F080520192019A02931A4A116841F495
:1082500040411160126802F440420292029A0222E6
:10826000089201210B9110210C910E920F9308237B
:108270001093642111911292139308A801F002FD4A
:1082800088B90F23039302230493002305934FF42B
:10829000805206920793032103A801F0B7FF20B98B
:1082A00015B05DF804FBFFF7B5FFFFF7B3FF00BFA4
:1082B000003802400070004008B504F0C1FFFFF72D
:1082C000ABFF00F049F801224FF40051014803F0E0
:1082D000A0F808BD000C024008B51D4A136B43F01E
:1082E000080313631B4B1A6842F080721A601A6805
:1082F00042F080621A601A6842F080521A601A686E
:1083000042F080421A6000225A609A60114C636900
:1083100083F48053636142F21070FFF75FFF63697B
:1083200083F40053636142F21070FFF757FF6369F3
:1083300083F48043636142F21070FFF74FFF63697B
:1083400083F40043636142F21070FFF747FFDDE7FB
:1083500000380240000C024070B588B0002403943D
:1083600004940594069407940194184B1A6B42F0F8
:1083700001021A631A6B02F001020192019A02943F
:108380001A6B42F008021A631B6B03F00803029396
:10839000029B0F4D22464FF47041284603F039F8F6
:1083A000012603964FF490130493059403A90948FA
:1083B00002F0BCFE4FF470430393049605940694B8
:1083C00003A9284602F0B2FE08B070BD0038024092
:1083D000000C02400000024008B50A480A4B036046
:1083E0004FF4E133436000238360C36003610C22D8
:1083F00042618361C36100F0B6F900B908BDFFF7BF
:1084000009FFFBE7D42102000010014000B589B04C
:10841000002303930493059306930793026803F1E3
:10842000804303F588339A4202D009B05DF804FB1B
:108430000021019103F594335A6C42F010025A6402
:108440005A6C02F010020192019A02911A6B42F0EA
:1084500001021A631B6B03F001030293029B4FF4AA
:10846000C063039302230493032306930723079314
:1084700003A9024802F05AFED7E700BF00000240FD
:1084800008B50268074B9A4200D008BD064A536CF3
:1084900023F0100353644FF4C061044802F02AFF34
:1084A000F3E700BF00100140003802400000024026
:1084B000FEE7FEE7FEE7FEE7FEE7704782B0002139
:1084C00000910B4B5A6C42F480425A645A6C02F48D
:1084D00080420092009A01911A6C42F080521A6414
:1084E0001B6C03F080530193019B02B0704700BFE7
:1084F00000380240026802F10C0353E8003F23F009
:10850000C0030C3242E800310029F3D1202380F867
:108510003D307047026802F10C0353E8003F23F43A
:1085200090730C3242E800310029F3D1026802F165
:10853000140353E8003F23F00103143242E80031F2
:108540000029F3D1036B012B05D0202380F83E30A6
:10855000002303637047026802F10C0353E8003FF5
:1085600023F010030C3242E800310029F3D1ECE78C
:1085700090F83D30DBB2212B01D002207047836898
:10858000B3F5805F17D0036A5A1C02621A78036839
:108590005A60C38C9BB2013B9BB2C3844BB9026847
:1085A000D36823F08003D3600268D36843F04003AC
:1085B000D360002070470369002BE4D1036A1B8855
:1085C0000268C3F308035360036A02330362E0E7FF
:1085D00010B504460268136923F44053C1680B4385
:1085E0001361836802691A4343691A43C3691A43D2
:1085F0000168CB6823F4164323F00C031343CB60CC
:108600000268536923F4407381690B435361036823
:10861000314A934206D002F58062934202D001F0C3
:10862000ABFE01E001F0B8FEE369B3F5004F29D0DD
:108630000021031849411B1841F10001C90041EA1A
:108640005371DB00181863684FEA83024FEA937393
:1086500041F1000108F078FB204AA2FB00314909F2
:10866000642303FB11031B013233A2FB03235B09C9
:1086700003F0F00202EB011203F00F032168134430
:108680008B6010BD0023021843EB0301121841F167
:108690000001C90041EA5271D200101841F10001F5
:1086A000626892185B4108F04FFB0C4AA2FB003154
:1086B0004909642303FB1103DB003233A2FB0323CC
:1086C0005B095A0002F4F87202EB011203F007038F
:1086D000216813448B60D4E7001001401F85EB51E3
:1086E0002DE9F84305460F4616469946DDF82080E9
:1086F0002B681C6837EA04040CBF01240024B44230
:108700002DD1B8F1FF3FF3D0B8F1000F05D004F040
:10871000BDFDA0EB09004045EAD92A6802F10C032F
:1087200053E8003F23F4D0730C3242E800310029B3
:10873000F3D12A6802F1140353E8003F23F0010348
:10874000143242E800310029F3D1202385F83D306E
:1087500085F83E30002385F83C30032000E00020FF
:10876000BDE8F883704758B310B5044690F83D3023
:108770000BB3242384F83D302268D36823F40053DC
:10878000D3602046FFF724FF2268136923F4904347
:1087900013612268536923F02A0353612268D36866
:1087A00043F40053D36000202064202384F83D303C
:1087B00084F83E3010BD80F83C30FFF727FED8E744
:1087C00001207047002830D010B5044690F83D30A5
:1087D00033B3242384F83D302268D36823F4005354
:1087E000D3602046FFF7F4FE2268136923F4904318
:1087F00013612268536923F022035361226853698D
:1088000043F0080353612268D36843F40053D360F4
:1088100000202064202384F83D3084F83E3010BDD1
:1088200080F83C30FFF7F2FDD3E7012070470028C5
:108830003BD038B50D46044690F83D30002B2FD084
:10884000242384F83D302268D36823F40053D36096
:108850002046FFF7BDFE2268136923F4006313610D
:108860002268536923F02A0353612268136943F491
:10887000804313612268136923F020031361226887
:1088800013692B4313612268D36843F40053D36008
:1088900000202064202384F83D3084F83E3038BD29
:1088A00080F83C30FFF7B2FDCAE70120704700288E
:1088B00040D070B50D461646044690F83D30002B6A
:1088C00033D0242384F83D302268D36823F4005346
:1088D000D3602046FFF77CFE2268136923F490439F
:1088E00013612268536923F02A03536122681369D4
:1088F00023F00F03136123681A6915431D61226871
:10890000D36823F40063D3602268D3683343D36011
:108910002268D36843F40053D360002020642023EE
:1089200084F83D3084F83E3070BD80F83C30FFF76D
:108930006DFDC6E7012070477047A8B110B5044629
:10894000242380F83D300268D36823F40053D360B9
:10895000FFF796FD0020206484F83D0084F83E0077
:10896000206384F83C0010BD012070472DE9F041E0
:1089700082B01E4690F83D30DBB2202B54D1044625
:108980000D469046002953D0002A53D090F83C3031
:10899000012B51D0012380F83C30002303642123B4
:1089A00080F83D3004F072FC0746A4F82480A4F857
:1089B0002680A368B3F5805F05D04FF00008002340
:1089C00084F83C3012E0236913B14FF00008F6E759
:1089D000A8460025F3E738F8023B2268C3F30803F2
:1089E0005360E28C92B2013A92B2E284E38C9BB281
:1089F00073B100963B46002280212046FFF770FEAF
:108A0000E0B9002DE7D015F8012B23685A60E8E79C
:108A100000963B46002240212046FFF761FE78B9D0
:108A2000202384F83D3000E0022002B0BDE8F08150
:108A30000120FAE70120F8E70220F6E70320F4E737
:108A40000320F2E72DE9F04182B01E4690F83E3057
:108A5000DBB2202B5CD104460D46904600295BD04A
:108A6000002A5BD090F83C30012B59D0012380F8CC
:108A70003C3000230364222280F83E20036304F08C
:108A800005FC0746A4F82C80A4F82E80A368B3F553
:108A9000805F05D04FF00008002384F83C3017E0D9
:108AA000236913B14FF00008F6E7A8460025F3E765
:108AB00023685B68C3F3080328F8023B03E02368DC
:108AC0005B682B700135E28D92B2013A92B2E28579
:108AD000E38D9BB2BBB100963B460022202120468D
:108AE000FFF7FEFDF0B9002DE2D0A368B3F5805F7B
:108AF000E5D013B92369002BE1D023685B6803F04C
:108B00007F032B70DEE7202384F83E30002000E056
:108B1000022002B0BDE8F0810120FAE70120F8E769
:108B20000220F6E70320F4E790F83D30DBB2202B7B
:108B300019D1D1B1DAB190F83C30012B19D0012311
:108B400080F83C3001628284C284002303642122C5
:108B500080F83D2080F83C300168CA6842F080020D
:108B6000CA601846704702207047012070470120F4
:108B700070470220704738B5134690F83D20D2B2B6
:108B8000202A37D10446002936D0002B36D090F861
:108B90003C20012A34D0012280F83C2001628384E9
:108BA000C38400250564212280F83D20426B1548CE
:108BB000D063626B14481064626B1448D064626BBB
:108BC000156522680432606B03F05CFD23686FF06A
:108BD00040021A6084F83C50226802F1140353E802
:108BE000003F43F08003143242E800310029F3D102
:108BF000002000E0022038BD0120FCE70120FAE758
:108C00000220F8E73191000099910000A99100003D
:108C1000034690F83C20012A4ED0012280F83C20E7
:108C20000268516901F0800190F83D20D2B2212AFA
:108C30000CD01A68516901F0400193F83E20D2B27D
:108C4000222A12D0002083F83C0070470029F0D07F
:108C5000196801F1140252E8002F22F08002143149
:108C600041E800200028F3D1E3E70029EAD01968A1
:108C700001F10C0252E8002F22F480720C3141E81D
:108C800000200028F3D1196801F1140252E8002FE6
:108C900022F00102143141E800200028F3D11968C4
:108CA00001F1140252E8002F22F04002143141E891
:108CB00000200028F3D1C5E70220704790F83C203F
:108CC000012A52D00346012280F83C2090F83D2032
:108CD000D2B2212A08D093F83E20D2B2222A10D054
:108CE000002083F83C007047196801F1140252E833
:108CF000002F42F08002143141E800200028F3D117
:108D0000E9E782B0002201921A6811680191526865
:108D10000192019A1A695AB1196801F10C0252E8DC
:108D2000002F42F480720C3141E800200028F3D17A
:108D3000196801F1140252E8002F42F001021431C7
:108D400041E800200028F3D1196801F1140252E82B
:108D5000002F42F04002143141E800200028F3D1F6
:108D6000002083F83C0002B070470220704710B525
:108D7000044603685A6990F83D30DBB2212B0AD0D3
:108D800023685A6902F0400294F83E30DBB2222B8D
:108D900019D0002010BD02F08002002AF0D0226815
:108DA00002F1140353E8003F23F08003143242E839
:108DB00000310029F3D1606B08B103F098FC204624
:108DC000FFF798FBDCE7002AE3D0226802F11403E6
:108DD00053E8003F23F04003143242E800310029F9
:108DE000F3D1A06B08B103F082FC2046FFF792FBA1
:108DF000CFE72DE9F04383B01E460A9F90F83E303E
:108E0000DBB2202B40F0878004460D4691460029B6
:108E100000F08580002A00F0848090F83C30012B1F
:108E200000F08180012380F83C300022026422227D
:108E300080F83E20036304F029FA8046A4F82C90C1
:108E4000A4F82E90A368B3F5805F06D04FF0000918
:108E5000002384F83C30338020E0236913B14FF0C5
:108E60000009F5E7A9460025F2E7202384F83E3003
:108E7000002051E05368C3F3080329F8023B02E0E5
:108E800053682B700135338801333380E38D9BB2F7
:108E9000013B9BB2E385B7F1FF3F25D1E28D92B252
:108EA000002A2ED02268136813F0100F09D0002377
:108EB00001931368019353680193019B3388002B3E
:108EC000D3D1136813F0200FE5D0002DD2D0A368C2
:108ED000B3F5805FD4D013B92369002BD0D0536889
:108EE00003F07F032B70CDE704F0D0F9A0EB08006E
:108EF000B84201D8002FD1D1202384F83E3003207E
:108F00000AE0A38DE28D92B29B1A3380202384F86D
:108F10003E30002000E0022003B0BDE8F0830120D5
:108F2000FAE70120F8E70220F6E710B504462268C8
:108F300002F10C0353E8003F23F4F0730C3242E8D3
:108F400000310029F3D1226802F1140353E8003FF5
:108F500023F00103143242E800310029F3D1236BDE
:108F6000012B3CD023685B6913F0800F13D022687B
:108F700002F1140353E8003F23F08003143242E867
:108F800000310029F3D1636B2BB100221A65606BAD
:108F900003F0ADFB80BB23685B6913F0400F13D077
:108FA000226802F1140353E8003F23F04003143217
:108FB00042E800310029F3D1A36B2BB100221A65DE
:108FC000A06B03F094FB00BB0020E084E0852064EC
:108FD000202384F83E3084F83D30206310BD2268A1
:108FE00002F10C0353E8003F23F010030C3242E877
:108FF00000310029F3D1B5E7606B03F0BEFD2028F6
:10900000C9D1102323640320E8E7A06B03F0B5FD6A
:109010002028D9D1102323640320DFE710B50446AC
:10902000226802F10C0353E8003F23F0C0030C3226
:1090300042E800310029F3D123685B6913F0800F07
:1090400013D0226802F1140353E8003F23F0800399
:10905000143242E800310029F3D1636B2BB10022B6
:109060001A65606B03F043FB28B90020E0842023DD
:1090700084F83D3010BD606B03F07FFD2028F4D1F3
:10908000102323640320F5E710B50446226802F19B
:109090000C0353E8003F23F490730C3242E8003194
:1090A0000029F3D1226802F1140353E8003F23F0B2
:1090B0000103143242E800310029F3D1236B012B64
:1090C0001FD023685B6913F0400F13D0226802F1B0
:1090D000140353E8003F23F04003143242E8003108
:1090E0000029F3D1A36B2BB100221A65A06B03F00A
:1090F000FEFA98B90020E085202384F83E302063F2
:1091000010BD226802F10C0353E8003F23F0100366
:109110000C3242E800310029F3D1D2E7A06B03F012
:109120002CFD2028E6D1102323640320E8E77047B4
:1091300008B50346806B1B681B6813F4807F1AD147
:109140000023C384026802F1140353E8003F23F0B4
:109150008003143242E800310029F3D1026802F1A1
:109160000C0353E8003F43F040030C3242E8003167
:109170000029F3D108BDFFF7DAFFFBE708B5016866
:10918000CA6822F04002CA60202280F83D20FFF722
:10919000CEFF002008BD704708B5806BFFF7FBFFCE
:1091A00008BD70477047704710B5846B23685A69D3
:1091B00094F83D30DBB2212B10D023685A6902F0BD
:1091C000400294F83E30DBB2222B11D0236C43F0E6
:1091D000100323642046FFF7E6FF10BD02F0800273
:1091E000002AEAD00023E3842046FFF783F9E4E76E
:1091F000002AEBD00023E3852046FFF78BF9E5E753
:1092000008B5806B0023C385C384FFF7CCFF08BD7E
:10921000704738B50446226802F10C0353E8003F5A
:1092200023F4F0730C3242E800310029F3D12268B4
:1092300002F1140353E8003F23F00103143242E823
:1092400000310029F3D1236B012B2ED0636B33B196
:109250002268526912F0800F34D0344A1A65A36B29
:1092600033B12268526912F0400F2ED0304A1A658D
:1092700023685B6913F0800F2AD0216801F1140381
:1092800053E8003F23F08003143141E800321546D3
:10929000002AF2D1606B002842D003F072FAC0B10C
:1092A000636B00221A65012513E0226802F10C03AA
:1092B00053E8003F23F010030C3242E8003100294C
:1092C000F3D1C3E700221A65C9E700221A65CFE788
:1092D000012523685B6913F0400F23D0226802F157
:1092E000140353E8003F23F04003143242E80031F6
:1092F0000029F3D1A06BA8B103F043FAA0B1A36B8E
:1093000000221A650023E384E3852364202284F885
:109310003D2084F83E2023632046FFF779FF03E0D9
:109320000125D6E7012DEDD0002038BD6193000066
:109330003593000008B5806B836B00221A65436B80
:109340000BB11B6D5BB90023C384C385036420226A
:1093500080F83D2080F83E200363FFF759FF08BDE9
:1093600008B5806B436B00221A65836B0BB11B6DD4
:109370005BB90023C384C3850364202280F83D20A9
:1093800080F83E200363FFF743FF08BD704710B528
:109390000446226802F10C0353E8003F23F0C003A7
:1093A0000C3242E800310029F3D123685B6913F0E5
:1093B000800F20D0226802F1140353E8003F23F00D
:1093C0008003143242E800310029F3D1636B4BB1C2
:1093D0000E4A1A65606B03F0D4F9A0B1606B036D9F
:1093E000984710E00023E384202384F83D30204692
:1093F000FFF7CCFF07E00023E384202384F83D300F
:109400002046FFF7C3FF002010BD00BF11940000ED
:1094100008B5806B0023C384202380F83D30FFF71C
:10942000B5FF08BD704710B50446226802F10C0371
:1094300053E8003F23F490730C3242E800310029D6
:10944000F3D1226802F1140353E8003F23F0010333
:10945000143242E800310029F3D1236B012B1CD0D8
:1094600023685B6913F0400F2ED0226802F11403C9
:1094700053E8003F23F04003143242E80031002952
:10948000F3D1A36BB3B1164A1A65A06B03F079F957
:1094900018B3A06B036D98471FE0226802F10C031C
:1094A00053E8003F23F010030C3242E8003100295A
:1094B000F3D1D5E70023E385202284F83E202363FF
:1094C0002046FFF7AFFF08E00023E385202284F861
:1094D0003E2023632046FFF7A5FF002010BD00BFFC
:1094E000E594000008B5806B0023C385202280F836
:1094F0003E200363FFF796FF08BD704790F83E30AB
:10950000DBB2222B67D18368B3F5805F4DD0826ACE
:10951000B3F5805F04D0002B54D10369002B51D1E7
:1095200003685B681370836A01338362C38D9BB2E7
:10953000013B9BB2C385002B4FD100B583B00268BD
:10954000D36823F02003D3600268D36823F48073C8
:10955000D3600268536923F001035361202380F82C
:109560003E30036B012B33D100230363026802F109
:109570000C0353E8003F23F010030C3242E80031A3
:109580000029F3D103681A6812F0100F06D00022E8
:1095900001921A6801925B680193019B818DFFF72C
:1095A000ACFF002003B05DF804FB0269002AAED1D5
:1095B000826A03685B68C3F308031380836A02331B
:1095C0008362B3E703685B6803F07F031370AAE765
:1095D000FFF7E7FDE5E7022070470020704730B550
:1095E00083B0044602681368D068516913F00F0510
:1095F00005D113F0200F02D010F0200F19D12DB19A
:1096000011F0010119D110F4907F16D1216B0129BD
:109610007DD013F0800F03D010F0800F40F0158143
:1096200013F0400F03D010F0400F40F0128103B050
:1096300030BD2046FFF762FFF9E713F0010F06D0B7
:1096400010F4807F03D0226C42F00102226413F0F8
:10965000040F04D019B1226C42F00202226413F00C
:10966000020F04D019B1226C42F00402226413F0FC
:10967000080F07D010F0200F00D119B1226C42F072
:1096800008022264226C002AD1D013F0200F02D0ED
:1096900010F0200F29D123685B6903F04003226C8E
:1096A00012F0080F00D163B32046FEF733FF2368A2
:1096B0005B6913F0400F20D0226802F1140353E8D5
:1096C000003F23F04003143242E800310029F3D177
:1096D000A36B73B1614A1A65A06B03F052F80028BE
:1096E000A5D0A06B036D9847A1E72046FFF706FFC2
:1096F000D1E72046FFF757FD99E72046FFF753FDD6
:1097000095E72046FFF74FFD002323648FE713F012
:10971000100F3FF47EAF10F0100F3FF47AAF00232C
:1097200001931368019353680193019B536913F0EC
:10973000400F50D0A26B13685B689BB2002B3FF4C4
:1097400076AFA18D99427FF672AFE385D369B3F509
:10975000807F37D0226802F10C0353E8003F23F4E6
:1097600080730C3242E800310029F3D1226802F103
:10977000140353E8003F23F00103143242E80031A0
:109780000029F3D1226802F1140353E8003F23F0CB
:109790004003143242E800310029F3D1202384F839
:1097A0003E3000232363226802F10C0353E8003F9C
:1097B00023F010030C3242E800310029F3D1A06BF2
:1097C00002F095FFA18DE38D9BB2C91A89B22046A4
:1097D000FFF793FE2BE7A18DE38D9BB2C91A89B2E7
:1097E000E38D9BB2002B3FF422AF00293FF41FAF63
:1097F000226802F10C0353E8003F23F490730C320B
:1098000042E800300028F3D1226802F1140353E843
:10981000003F23F00103143242E800300028F3D166
:10982000202384F83E3000232363226802F10C03D6
:1098300053E8003F23F010030C3242E800300028C8
:10984000F3D12046FFF759FEF1E62046FEF790FEE1
:10985000EDE62046FFF792FCE9E600BF019200002A
:1098600008B5806B036B012B02D0FFF79BFC08BD92
:10987000818D4908FFF741FEF9E708B50346806B83
:109880001B681B6813F4807F2BD10023C3850268FB
:1098900002F10C0353E8003F23F480730C3242E8DA
:1098A00000310029F3D1026802F1140353E8003FAC
:1098B00023F00103143242E800310029F3D1026899
:1098C00002F1140353E8003F23F04003143242E84E
:1098D00000310029F3D1202380F83E30036B012BA7
:1098E00005D0036B012B0FD0FFF75BFC08BD0268AE
:1098F00002F10C0353E8003F23F010030C3242E85E
:1099000000310029F3D1ECE7818DFFF7F6FDEDE79B
:1099100090F83C30012B19D0012380F83C302423EF
:1099200080F83D30026802F10C0353E8003F43F039
:1099300001030C3242E800310029F3D1202380F8E2
:109940003D30002380F83C301846704702207047B5
:1099500090F83C30012B19D0012380F83C302423AF
:1099600080F83D30026802F10C0353E8003F43F0F9
:1099700002030C3242E800310029F3D1202380F8A1
:109980003D30002380F83C30184670470220704775
:1099900090F83C30012B19D0012380F83C3024236F
:1099A00080F83D30026802F10C0353E8003F23F0D9
:1099B00002030C3242E800310029F3D1202380F861
:1099C0003D30002380F83C30184670470220704735
:1099D00090F83C30012B14D0012380F83C30242334
:1099E00080F83D300268D36823F00C0343F008038D
:1099F000D360202380F83D30002380F83C301846A7
:109A000070470220704790F83C30012B14D001239E
:109A100080F83C30242380F83D300268D36823F07E
:109A20000C0343F00403D360202380F83D3000236F
:109A300080F83C30184670470220704790F83D305F
:109A400090F83E0018437047006C70478162828531
:109A5000C28500230364222280F83E2080F83C3037
:109A6000036923B10268D36843F48073D36002684A
:109A7000536943F0010353610268D36843F0200344
:109A8000D3600020704708B590F83E30DBB2202B41
:109A90000DD171B17AB190F83C30012B0DD001237A
:109AA00080F83C3000230363FFF7D0FF00E0022082
:109AB00008BD0120FCE70120FAE70220F8E790F852
:109AC0003E30DBB2202B29D110B582B0044639B329
:109AD00042B390F83C30012B27D0012380F83C3072
:109AE0000363FFF7B3FFF0B9236B012B01D0012013
:109AF00019E00023019323681A6801925B680193BF
:109B0000019B226802F10C0353E8003F43F010036D
:109B10000C3242E800310029F3D104E00220704702
:109B2000012000E0012002B010BD0220FBE730B5AB
:109B300083B0044613468162828500250564222293
:109B400080F83E20826B2148D063A26B20481064CD
:109B5000A26B2048D064A26B156520680A46011DDF
:109B6000A06B02F08FFD019523681A6801925B6873
:109B70000193019B84F83C5023695BB1226802F198
:109B80000C0353E8003F43F480730C3242E8003189
:109B90000029F3D1226802F1140353E8003F43F097
:109BA0000103143242E800310029F3D1226802F1A6
:109BB000140353E8003F43F04003143242E80031FD
:109BC0000029F3D1002003B030BD00BF7B98000016
:109BD00061980000A991000008B590F83E30DBB212
:109BE000202B0DD171B17AB190F83C30012B0DD002
:109BF000012380F83C3000230363FFF798FF00E067
:109C0000022008BD0120FCE70120FAE70220F8E766
:109C100090F83E30DBB2202B29D110B582B004463B
:109C200039B342B390F83C30012B27D0012380F8A0
:109C30003C300363FFF77BFFF0B9236B012B01D0AE
:109C4000012019E00023019323681A6801925B68E0
:109C50000193019B226802F10C0353E8003F43F09B
:109C600010030C3242E800310029F3D104E0022055
:109C70007047012000E0012002B010BD0220FBE788
:109C800000207047002800F0E08170B582B00446E3
:109C9000036813F0010F3BD09F4B9B6803F00C034C
:109CA000042B2CD09C4B9B6803F00C03082B21D079
:109CB0006368B3F5803F4FD0B3F5A02F52D0964BD9
:109CC0001A6822F480321A601A6822F480221A601C
:109CD0006368002B50D003F0D9FA05468E4B1B6801
:109CE00013F4003F14D103F0D1FA401B6428F5D9D6
:109CF0000320B1E1884B5B6813F4800FD8D0864B0A
:109D00001B6813F4003F03D06368002B00F09F81B1
:109D1000236813F0020F54D07F4B9B6813F00C0F95
:109D20003ED07D4B9B6803F00C03082B33D0E368D7
:109D3000002B68D0794B01221A6003F0A7FA054680
:109D4000754B1B6813F0020F54D103F09FFA401BB0
:109D50000228F5D903207FE16F4A136843F480336A
:109D60001360B5E76C4B1A6842F480221A601A68D7
:109D700042F480321A60ABE703F088FA0546664B7E
:109D80001B6813F4003FC3D003F080FA401B642823
:109D9000F5D9032060E1604B5B6813F4800FC6D1F6
:109DA0005D4B1B6813F0020F03D0E368012B40F0FA
:109DB0005081594A136823F0F803216943EAC1032B
:109DC0001360236813F0080F42D063696BB3534BE1
:109DD0000122C3F8802E03F059FA05464E4B5B6F03
:109DE00013F0020F34D103F051FA401B0228F5D9C9
:109DF000032031E1484A136823F0F803216943EA5C
:109E0000C1031360DDE7454B00221A6003F03EFA00
:109E10000546414B1B6813F0020FD2D003F036FA0F
:109E2000401B0228F5D9032016E13C4B0022C3F861
:109E3000802E03F02BFA0546374B5B6F13F0020FB1
:109E400006D003F023FA401B0228F5D9032003E1D2
:109E5000236813F0040F77D02F4B1B6C13F0805F37
:109E600033D1002301932C4B1A6C42F080521A64B8
:109E70001B6C03F080530193019B0125284B1B6849
:109E800013F4807F23D0A368012B34D0052B38D066
:109E9000214B1A6F22F001021A671A6F22F0040296
:109EA0001A67A368002B3DD003F0F0F906461A4B61
:109EB0001B6F13F0020F46D103F0E8F9801B41F24B
:109EC00088339842F3D90320C6E00025D6E7144A28
:109ED000136843F48073136003F0D8F90646104BFF
:109EE0001B6813F4807FCED103F0D0F9801B0228C9
:109EF000F5D90320B0E0084A136F43F0010313675C
:109F0000CFE7054B1A6F42F004021A671A6F42F04E
:109F100001021A67C5E700BF00380240000047424F
:109F20000070004003F0B2F90646524B1B6F13F06D
:109F3000020F08D003F0AAF9801B41F2883398423F
:109F4000F3D9032088E0EDB9A369002B00F08380EA
:109F5000484A926802F00C02082A51D0022B17D00E
:109F6000454B00221A6603F091F90446414B1B68E9
:109F700013F0007F42D003F089F9001B0228F5D9C5
:109F8000032069E03B4A136C23F080531364DBE742
:109F9000394B00221A6603F079F90546354B1B68E8
:109FA00013F0007F06D003F071F9401B0228F5D9A9
:109FB000032051E0E369226A1343626A43EA821391
:109FC000A26A5208013A43EA0243E26A43EA0263A0
:109FD000284A5360284B01221A6603F057F90446B9
:109FE000244B1B6813F0007F06D103F04FF9001BD0
:109FF0000228F5D903202FE000202DE000202BE0DF
:10A00000012B2BD01B4B5B6803F48001E26991426A
:10A0100026D103F03F02216A8A4223D1616A47F6C2
:10A02000C0721A40B2EB811F1ED103F44031A26A04
:10A030005208013AB1EB024F18D103F07063E26AA3
:10A04000B3EB026F14D1002006E00120704701201D
:10A0500002E0012000E0002002B070BD0120FBE71B
:10A060000120F9E70120F7E70120F5E70120F3E7F8
:10A070000120F1E7003802400000474270B588B087
:10A080000C46154600BB00230193204E326B42F074
:10A0900001023263326B02F001020192019A4FF425
:10A0A0008072039202220492032206920593079380
:10A0B00003A9174801F03AF8B36823F0EC6325438D
:10A0C0001D43B56008B070BD002302930F4E326B84
:10A0D00042F004023263326B02F004020292029AEE
:10A0E0004FF4007203920222049203220692059317
:10A0F000079303A9074801F019F8B36823F07843E0
:10A1000044EAC5041C43B460DCE700BF00380240E9
:10A110000000024000080240014B0122DA6470474F
:10A1200000004742014B0022DA64704700004742BA
:10A1300008B5334B9B6803F00C03042B5BD0082B52
:10A140005BD12F4B5A6802F03F025B6813F4800F1B
:10A150002CD02B4B5868C0F388104FEA401CBCEB46
:10A16000000C6EEB0E0E4FEA8E1343EA9C634FEA2F
:10A170008C11B1EB0C0163EB0E03DB0043EA51736E
:10A18000C90011EB000C43F10003590200234FEA10
:10A190004C2041EADC5106F0D7FD194B5B68C3F354
:10A1A000014301335B00B0FBF3F027E0144B586828
:10A1B000C0F388104FEA401CBCEB000C6EEB0E0E97
:10A1C0004FEA8E1343EA9C634FEA8C11B1EB0C010A
:10A1D00063EB0E03DB0043EA5173C90011EB000C83
:10A1E00043F10003990200234FEA8C2041EA9C517D
:10A1F00006F0AAFDD1E7034800E0034808BD00BF10
:10A200000038024000127A000024F400002800F018
:10A210009B8070B50D4604464F4B1B6803F0070347
:10A220008B4208D2CBB24C4A1370136803F0070379
:10A230008B4240F08B80236813F0020F17D013F08D
:10A24000040F04D0454A936843F4E05393602368B5
:10A2500013F0080F04D0414A936843F460439360BD
:10A260003E4A936823F0F003A1680B439360236890
:10A2700013F0010F32D06368012B21D09A1E012AFE
:10A2800025D9364A126812F0020F61D033498A6824
:10A2900022F0030213438B6002F0F8FF06462F4BB7
:10A2A0009B6803F00C036268B3EB820F16D002F0D8
:10A2B000EDFF801B41F288339842F0D9032042E041
:10A2C000264A126812F4003FE0D101203BE0234A05
:10A2D000126812F0007FD9D1012034E01E4B1B68B8
:10A2E00003F00703AB4207D9EAB21B4B1A701B6895
:10A2F00003F00703AB422DD1236813F0040F06D0FF
:10A30000164A936823F4E053E1680B439360236893
:10A3100013F0080F07D0114A936823F460432169B2
:10A3200043EAC1039360FFF703FF0C4B9B68C3F341
:10A3300003130B4AD35CD8400A4B18600A4B1868C9
:10A3400002F05AFF002070BD012070470120FAE79B
:10A350000120F8E70120F6E7003C02400038024007
:10A360000C1A0100801A02007C1A0200014B1868C6
:10A37000704700BF801A020008B5FFF7F7FF044BD3
:10A380009B68C3F38223034AD35CD84008BD00BF57
:10A39000003802401C1A010008B5FFF7E7FF044B24
:10A3A0009B68C3F34233034AD35CD84008BD00BF67
:10A3B000003802401C1A01000F230360304B1B6859
:10A3C00013F4802F3BD04FF4A02343602C4B1B6829
:10A3D00013F0010F3FD00123C360294A1368C3F370
:10A3E000C4030361136F13F0040F37D00523836098
:10A3F000234B5B6F13F0010F3BD001234361204BD4
:10A400001B6813F0807F37D0022383611C4A536896
:10A4100003F48003C361536803F03F03036253688E
:10A42000C3F388134362536803F4403303F5803366
:10A43000DB0B83625368C3F30363C3627047104B43
:10A440001B6813F4803F03D04FF480334360BDE7B3
:10A4500000234360BAE70023C360BEE7084B1B6FCD
:10A4600013F0010F02D001238360C1E70023836052
:10A47000BEE700234361C2E701238361C6E700BF53
:10A48000003802400F2303600B4B9A6802F003026E
:10A4900042609A6802F0F00282609A6802F4E05228
:10A4A000C2609B68DB0803F4E0530361034B1B6845
:10A4B00003F007030B60704700380240003C024085
:10A4C000704708B5054BDB6813F0800F00D108BD5D
:10A4D000FFF7F6FF014B80229A73F8E7003802403D
:10A4E00030B583B00446036813F0050F0ED123681E
:10A4F00013F0020F38D1236813F0080F00F09D808D
:10A50000227D4F4BC3F8E021002097E04D4B002205
:10A510009A6602F0BBFE05464B4B1B6813F0006FBA
:10A5200006D002F0B3FE431B022BF5D9032085E0D1
:10A530006368A26843EA8213E26843EA0273424A0C
:10A54000C2F884303F4B01229A6602F09FFE054616
:10A550003D4B1B6813F0006FC9D102F097FE401B02
:10A560000228F5D9032069E000230193364B1A6CC9
:10A5700042F080521A641B6C03F080530193019BDC
:10A58000324A136843F48073136002F07FFE05467D
:10A590002E4B1B6813F4807F06D102F077FE431B1D
:10A5A000022BF5D9032049E0274B1B6F13F44073AE
:10A5B00014D0226902F440729A420FD0224B1A6FD3
:10A5C00022F440721F490120C1F8400E0020C1F85A
:10A5D000400E1A671B6F13F0010F12D1236903F4A9
:10A5E0004072B2F5407F1DD0174A936823F4F813E8
:10A5F000936015490B6F2269C2F30B0213430B677B
:10A6000079E702F043FE05460F4B1B6F13F0020F74
:10A61000E4D102F03BFE401B41F288339842F3D96B
:10A6200003200BE008498A6822F4F81223F07043F3
:10A6300023F4407313438B60DBE7002003B030BD8D
:10A6400000104742000047420038024000700040BE
:10A6500003230360114BD3F88420C2F38812826075
:10A66000D3F88420C2F30272C260D3F8842002F0CF
:10A670003F024260996801F4F8111A6F02F44072C7
:10A680000A430261D3F88C3013F0807F02D100239B
:10A690000375704701230375704700BF00380240FF
:10A6A000012801D000207047174B9B6813F400036A
:10A6B00003D0012B25D115487047134B5B6813F469
:10A6C000800F15D0104BD3F8842002F03F02104BBE
:10A6D000B3FBF2F30C4AD2F88400C0F3881003FBFA
:10A6E00000F0D2F88430C3F30273B0FBF3F070478C
:10A6F000054BD3F8842002F03F02064BB3FBF2F384
:10A70000E8E70020704700BF003802400080BB002F
:10A7100000127A000024F400012805D0054A136FC6
:10A7200023F0080313677047024A136F43F00803CE
:10A73000136770470038024038B50546174B0022B2
:10A740009A6602F0A3FD0446154B1B6813F0006FD8
:10A7500006D002F09BFD001B0228F5D9032038BD6E
:10A760002B686A6843EA8213AA6843EA02730C4AB8
:10A77000C2F88430094B01229A6602F087FD044634
:10A78000074B1B6813F0006F06D102F07FFD001B22
:10A790000228F5D90320E2E70020E0E70000474265
:10A7A0000038024010B50A4B00229A6602F06EFD96
:10A7B0000446084B1B6813F0006F06D002F066FDDC
:10A7C000001B0228F5D9032000E0002010BD00BFC7
:10A7D000000047420038024038B502F057FD0446F9
:10A7E000474A136843F001031360454B1B6813F09D
:10A7F000020F06D102F04AFD001B0228F5D9032002
:10A8000038BD3F4D2B6843F080032B6002F03EFDC6
:10A8100004460023AB603A4B9B6813F00C0F08D042
:10A8200002F034FD001B41F288339842F3D9032033
:10A83000E6E702F02BFD0446314A136823F4502367
:10A8400013602F4B1B6813F4003F06D002F01EFD6F
:10A85000001B6428F5D90320D2E702F017FD044657
:10A86000274A136823F080731360254B1B6813F08D
:10A87000007F06D002F00AFD001B0228F5D9032054
:10A88000BEE702F003FD04461D4A136823F080630F
:10A8900013601B4B1B6813F0006F06D002F0F6FC30
:10A8A000001B0228F5D90320AAE7154B154A5A6068
:10A8B00002F1E052C3F88420DA6822F4F852DA6038
:10A8C000DA6822F40052DA60DA6842F41F02DA60D1
:10A8D000DA6842F40012DA605A6F22F001025A6715
:10A8E0005A6F42F080725A67074B084A1A60084B49
:10A8F000186802F081FC002882D0012080E700BFA8
:10A900000038024010300004801A02000024F400D5
:10A910007C1A020010B40A490C6924F440740C61DA
:10A920000C6944F440740C610C6944F001040C613E
:10A930000260BFF36F8F43605DF8044B704700BF48
:10A94000003C0240074B1A6922F440721A611A69EE
:10A9500042F400721A611A6942F001021A61016040
:10A96000704700BF003C0240074B1A6922F4407256
:10A970001A611A6942F480721A611A6942F001027E
:10A980001A610180704700BF003C0240064B1A6903
:10A9900022F440721A611A691A611A6942F00102BE
:10A9A0001A610170704700BF003C0240274BDB6812
:10A9B00013F0100F07D0264AD36943F01003D36178
:10A9C000224B1022DA60214BDB6813F0200F07D0F6
:10A9D0001F4AD36943F00803D3611C4B2022DA607D
:10A9E0001A4BDB6813F0400F07D0194AD36943F0C4
:10A9F0000403D361154B4022DA60144BDB6813F07B
:10AA0000800F07D0124AD36943F00203D3610F4B82
:10AA10008022DA600D4BDB6813F4807F08D00C4A8B
:10AA2000D36943F00103D361084B4FF48072DA60BD
:10AA3000064BDB6813F0020F07D0054AD36943F0D9
:10AA40002003D361014B0222DA607047003C0240D0
:10AA500018220200F8B5174D2D7E012D28D004468E
:10AA60000846144E01213176134D2F6947F0807747
:10AA70002F612F6947F000772F61032131707061DA
:10AA80003CB1012C0AD0022C0DD0FFF743FF00206F
:10AA9000F8BDD1B2FFF77AFF0020F9E791B2FFF7D6
:10AAA00063FF0020F4E71146FFF74CFF0020EFE7BB
:10AAB0000220EDE718220200003C02407047704778
:10AAC00010B53A4BDB6813F4F97F13D0384B1B7881
:10AAD000DBB2012B3BD0364B1B78DBB2022B3CD0D8
:10AAE000334B5C69FFF762FF2046FFF7E8FF304B0E
:10AAF00000221A702D4BDB6813F0010F13D02B4B83
:10AB00000122DA602A4B1B78DBB2934228D0284B13
:10AB10001B78DBB2022B41D0254B5869FFF7CEFFE3
:10AB2000234B00221A70224B1B787BB91F4B1A69EA
:10AB300022F0FF021A611A6922F080721A611A6902
:10AB400022F000721A611A4B00221A7610BD184BBF
:10AB5000DC684FF0FF32DA60C4E7154B1C69C1E7CF
:10AB6000134B5A68013A5A605B685BB1104CE0685D
:10AB7000FFF7A4FFE3680133E360E068217A00F0A7
:10AB8000FFF9D0E70A4B4FF0FF34DC6000221A7067
:10AB900000F052FA2046FFF791FFC4E700F04CFAAC
:10ABA000034B1869FFF78AFFBAE700BF003C024079
:10ABB00018220200094B1B69002B01DB00207047A3
:10ABC000064B074A5A6002F188325A601B69002B13
:10ABD00001DB002070470120704700BF003C0240AD
:10ABE00023016745034A136943F0004313610020C2
:10ABF000704700BF003C0240074B5B6913F0010F38
:10AC000007D0054B054A9A6002F144329A60002051
:10AC100070470120704700BF003C02403B2A1908E2
:10AC2000034A536943F0010353610020704700BF9A
:10AC3000003C0240014BD869704700BF1822020057
:10AC400038B50446144B0022DA6102F01FFB0546BA
:10AC5000124BDB6813F4803F0AD0B4F1FF3FF7D00A
:10AC600024B102F013FB401BA042F1D903200DE0F8
:10AC70000A4BDB6813F0010F02D0084B0122DA60A7
:10AC8000064BDB6813F4F97F01D1002038BDFFF7D4
:10AC90008DFE0120FAE700BF18220200003C0240AE
:10ACA000F8B516461B4A127E012A30D004460D46DE
:10ACB0001F46184B01221A764CF25030FFF7C0FFA6
:10ACC00090B9ACB1012C18D0022C1BD032463B46B7
:10ACD0002846FFF71FFE4CF25030FFF7B1FF0E4A37
:10ACE000136923F0010313610A4B00221A76F8BDA1
:10ACF000F1B22846FFF74AFEEDE7B1B22846FFF76A
:10AD000033FEE8E731462846FFF71CFEE3E7022062
:10AD1000EDE700BF18220200003C024008B5054ADA
:10AD2000137D43F0020313754CF25030FFF788FF98
:10AD300008BD00BF003C0240074B1A6922F4407274
:10AD40001A611A6942F004021A611A6942EA002281
:10AD500042F480321A617047003C0240044B1A7D75
:10AD600002F0F3021A751A7D02431A75002070472B
:10AD7000003C0240024B586900F0E000704700BF01
:10AD8000003C0240014BD88A80B27047003C024030
:10AD9000054B587DC0B2CC2804D0587DC0B2AA283B
:10ADA00000D05520704700BF003C0240024B187D88
:10ADB00000F00C00704700BF003C024010B5044694
:10ADC0004CF25030FFF73CFF28B9034AD38A9BB2BC
:10ADD00023EA0403D38210BD003C024010B50446B0
:10ADE0004CF25030FFF72CFF28B9034AD38A9BB2AC
:10ADF000A4B22343D38210BD003C024010B50446E8
:10AE00004CF25030FFF71CFF08B9014B5C7510BDC8
:10AE1000003C0240F8B504460E4615464CF2503050
:10AE2000FFF70EFF48B9054F3B7D03F01F0343EAD0
:10AE3000060141EA050222433A75F8BD003C024092
:10AE400010B504464CF25030FFF7FAFE28B9034A19
:10AE5000D38A9BB2A4B22343D38210BD003C0240EC
:10AE600010B504464CF25030FFF7EAFE28B9034A09
:10AE7000D38A9BB223EA0403D38210BD003C024074
:10AE80001F4B1B7E012B38D010B504461C4B0122F2
:10AE90001A76036813F0010F0CD04368934204D074
:10AEA000C1688068FFF79AFF05E0C1688068FFF716
:10AEB00085FF00E00120236813F0020F0BD1236807
:10AEC00013F0040F0BD1236813F0080F11D10C4BB2
:10AED00000221A7610BD207CFFF790FFEFE7207E5E
:10AEE00000F0800200F0400100F02000FFF792FF28
:10AEF000E9E7207DFFF732FFE9E70220704700BF56
:10AF00001822020010B504460F230360FFF73AFF32
:10AF1000A060FFF73DFF2061FFF72CFF2076FFF7D1
:10AF200045FF606110BD08B5036813F0010F0AD03A
:10AF30004368012B03D00089FFF792FF04E00089EA
:10AF4000FFF77EFF00E0012008BD024BDB8A038192
:10AF5000704700BF003C0240034AD37D43F08003AA
:10AF6000D3750020704700BF003C0240034AD37DE8
:10AF700003F07F03D3750020704700BF003C024000
:10AF800001291BD002291CD009B14FF440710E4B8E
:10AF90001A6922F440721A611A690A431A611A691D
:10AFA00022F0F8021A611A6942EAC00040F0020079
:10AFB00018611A6942F480321A6170474FF4807147
:10AFC000E5E74FF40071E2E7003C024008B5184B9A
:10AFD0001B7E012B29D0164B01221A76154B1A69BC
:10AFE00042F080721A611A6942F000721A61F3220B
:10AFF000DA600368012B0DD00D4B01221A70C26874
:10B000005A608268DA60017C19728068FFF7B8FFC5
:10B01000002008BD064B02221A7042681A6141687E
:10B02000007CFFF789FE0020F3E70220F1E700BF74
:10B0300018220200003C0240164B1B6813F4007FEC
:10B0400010D0144B1A6822F400721A601A6842F485
:10B0500000621A601A6822F400621A601A6842F4E8
:10B0600000721A600B4B1B6813F4806F10D0094BF1
:10B070001A6822F480621A601A6842F480521A60D8
:10B080001A6822F480521A601A6842F480621A60C8
:10B09000704700BF003C0240F8B5224B1B7E012BDD
:10B0A0003ED004460E461F4B01221A764CF2503019
:10B0B000FFF7C6FD074670BB4FF0FF3333602368D0
:10B0C000012B16D0A568E368A2681344AB4220D9CF
:10B0D000217C2846FFF754FF4CF25030FFF7B0FDBB
:10B0E000114A136923F0FA031361074680B9013549
:10B0F000E9E76168207CFFF71FFE4CF25030FFF754
:10B100009FFD0746084A136923F00403136100E01A
:10B110003560FFF791FF034B00221A763846F8BDE1
:10B120000227FBE718220200003C024000230F2BFD
:10B1300000F2D78070B582B065E085684FEA430EB3
:10B14000032404FA0EF425EA0405CC6804FA0EF48C
:10B150002C438460446824EA02044A68C2F3001263
:10B160009A40224342605CE0DC08083450F8242016
:10B1700003F00705AD004FF00F0E0EFA05FE22EAB0
:10B180000E0E0A69AA4042EA0E0240F824205CE052
:10B19000042200E0002202FA0EF22A430234514D4A
:10B1A00045F82420504A94686FEA0C0224EA0C0502
:10B1B0004E6816F4801F01D04CEA04054A4CA56085
:10B1C000E46802EA04054E6816F4001F01D04CEA58
:10B1D0000405454CE560646802EA04054E6816F40F
:10B1E000003F01D04CEA04053F4C656024682240D2
:10B1F0004D6815F4803F01D04CEA04023A4C2260BD
:10B2000001330F2B6BD801229A400C6804EA020C20
:10B2100032EA0404F4D14C6804F00304013C012C2C
:10B220008BD94A6802F00302032A09D0C4685D0082
:10B230000322AA4024EA02048A68AA402243C26088
:10B240004A6802F00302022A8ED004684FEA430ED5
:10B25000032202FA0EF224EA02044A6802F0030210
:10B2600002FA0EF2224302604A6812F4403FC7D04D
:10B27000002201921D4A546C44F480445464526C80
:10B2800002F480420192019A9C08A51C154A52F8CA
:10B29000255003F0030E4FEA8E0E0F2202FA0EF233
:10B2A00025EA0205124A90423FF474AF02F580622B
:10B2B00090420ED002F5806290420CD002F580627E
:10B2C00090420AD002F5806290423FF461AF0722BB
:10B2D00061E701225FE702225DE703225BE702B03C
:10B2E00070BD704700380140003C0140003802400A
:10B2F0000000024000230F2B7CD8F0B52DE0042580
:10B3000000E0002505FA0CF5A54257D004685D0061
:10B310004FF0030C0CFA05FC24EA0C0404604FEA1D
:10B32000D30E0EF1080E50F82E4003F00706B600BB
:10B330000F25B54024EA050440F82E40C46824EAED
:10B340000C04C460446824EA02024260826822EA73
:10B350000C02826001330F2B4BD801229A4002EA83
:10B36000010632EA0104F5D14FEA930E0EF102050F
:10B37000214C54F8254003F0030C4FEA8C0C0F25A8
:10B3800005FA0CF73C401D4DA842BAD005F5806582
:10B39000A8420DD005F58065A8420BD005F5806563
:10B3A000A84209D005F58065A842A8D00725A9E7DD
:10B3B0000125A7E70225A5E70325A3E7104C25688B
:10B3C00025EA06052560656825EA06056560E568E5
:10B3D00025EA0605E560A56825EA0605A560064E8E
:10B3E0000EF1020456F8245025EA070546F82450C9
:10B3F0008CE7F0BD704700BF0038014000000240FC
:10B40000003C01400369194201D00120704700202F
:10B4100070470AB1816170470904816170474369CF
:10B4200001EA030221EA030141EA02418161704716
:10B4300082B04FF480330193019B0B430193019B36
:10B44000C361C161019BC361C3690193C36913F403
:10B45000803F02D0002002B070470120FBE7704718
:10B4600008B5054B5B69034200D108BD024B58612A
:10B47000FFF7F5FFF9E700BF003C014010B4046896
:10B4800063608368402B06D0036899600368DA60C4
:10B490005DF8044B704703689A600368D960F7E76A
:10B4A00038B50446806880280DD094F8340001280F
:10B4B00023D0012084F8340094F83500C0B201286C
:10B4C00006D0022038BD4FF4807363650120F9E790
:10B4D000022084F835002568286840F48020286020
:10B4E00020680361049B2046FFF7C8FF22681368A9
:10B4F00043F0010313600020E4E70220E2E738B5DF
:10B5000004468068802817D0E06BD0B1606CC0B171
:10B51000E06CB0B194F83400012800F06887012095
:10B5200084F8340094F83500C0B201280DD000230F
:10B5300084F83430022007E04FF480736365012003
:10B5400002E040236365012038BD022084F8350005
:10B55000002060652568286840F480202860206805
:10B560000361049B2046FFF789FF2368A44A9342A6
:10B5700040F29880A2F58962934231D002F5806250
:10B58000934274D0A2F56872934272D002F5806241
:10B59000934270D0A2F5896293426ED002F5806228
:10B5A00093426DD0A2F5687293426CD002F580622E
:10B5B00093426BD0A2F5896293426AD002F5806211
:10B5C000934269D0A2F56872934268D002F5806216
:10B5D000934202D04FF0006203E04FF4001200E00B
:10B5E0002022884BDA602368854A934240F2CB815F
:10B5F000A2F58962934200F0648102F58062934271
:10B6000000F0A681A2F56872934200F0A38102F5D2
:10B610008062934200F0A081A2F58962934200F01B
:10B620009D8102F58062934200F09B81A2F56872D1
:10B63000934200F0998102F58062934200F0978175
:10B64000A2F58962934200F0958102F580629342EF
:10B6500000F09381A2F56872934200F0918102F5A7
:10B660008062934200F02A814FF080622AE120221A
:10B67000B7E72022B5E72022B3E74FF40062B0E736
:10B680004FF40062ADE74FF40062AAE74FF40062A6
:10B69000A7E74FF40012A4E74FF40012A1E74FF41C
:10B6A00000129EE7584A934253D9A83A934231D0A8
:10B6B00002F58062934231D0A2F5687293422FD096
:10B6C00002F5806293422DD0A2F5896293422BD07D
:10B6D00002F5806293422AD0A2F56872934229D083
:10B6E00002F58062934228D0A2F58962934227D066
:10B6F00002F58062934226D0A2F56872934225D06B
:10B7000002F58062934202D04FF0006303E04FF4F1
:10B71000001300E020233B4A936064E72023FAE70C
:10B720002023F8E72023F6E74FF40063F3E74FF414
:10B730000063F0E74FF40063EDE74FF40063EAE7DE
:10B740004FF40013E7E74FF40013E4E74FF400135E
:10B75000E1E72E4A93425DD9483A934231D002F54F
:10B760008062934231D0A2F5687293422FD002F5E5
:10B77000806293422DD0A2F5896293422BD002F5CC
:10B78000806293422AD0A2F56872934229D002F5D2
:10B790008062934228D0A2F58962934227D002F5B5
:10B7A0008062934226D0A2F56872934225D002F5BA
:10B7B0008062934202D04FF0006303E04FF4001325
:10B7C00000E02023124AD3600DE72023FAE720236C
:10B7D000F8E72023F6E74FF40063F3E74FF4006344
:10B7E000F0E74FF40063EDE74FF40063EAE74FF44E
:10B7F0000013E7E74FF40013E4E74FF40013E1E729
:10B800005864024000640240B86002405860024040
:10B8100000600240B14A934231D002F58062934207
:10B8200031D0A2F5687293422FD002F58062934224
:10B830002DD0A2F5896293422BD002F5806293420B
:10B840002AD0A2F56872934229D002F58062934211
:10B8500028D0A2F58962934227D002F580629342F4
:10B8600026D0A2F56872934225D002F580629342F9
:10B8700002D04FF0006303E04FF4001300E02023F8
:10B88000974A9360AFE62023FAE72023F8E72023C6
:10B89000F6E74FF40063F3E74FF40063F0E74FF48B
:10B8A0000063EDE74FF40063EAE74FF40013E7E7C6
:10B8B0004FF40013E4E74FF40013E1E74FF4801274
:10B8C00000E01022874BDA602368874A934240F2F7
:10B8D000CD81A2F58962934200F0668102F5806213
:10B8E000934200F0A881A2F56872934200F0A5810E
:10B8F00002F58062934200F0A281A2F58962934230
:10B9000000F09F8102F58062934200F09D81A2F5D4
:10B910006872934200F09B8102F58062934200F0CE
:10B920009981A2F58962934200F0978102F58062C5
:10B93000934200F09581A2F56872934200F09381E2
:10B9400002F58062934200F02C814FF000722CE1EE
:10B950001022B7E71022B5E71022B3E74FF4806258
:10B96000B0E74FF48062ADE74FF48062AAE74FF48E
:10B970008062A7E74FF48012A4E74FF48012A1E79A
:10B980004FF480129EE7594A934253D9A83A934202
:10B9900031D002F58062934231D0A2F568729342B1
:10B9A0002FD002F5806293422DD0A2F58962934296
:10B9B0002BD002F5806293422AD0A2F5687293429E
:10B9C00029D002F58062934228D0A2F58962934281
:10B9D00027D002F58062934226D0A2F56872934286
:10B9E00025D002F58062934202D04FF0806303E0DD
:10B9F0004FF4801300E010233A4A936064E7102369
:10BA0000FAE71023F8E71023F6E74FF48063F3E733
:10BA10004FF48063F0E74FF48063EDE74FF4806309
:10BA2000EAE74FF48013E7E74FF48013E4E74FF4BD
:10BA30008013E1E72E4A93425FD9483A934231D0CE
:10BA400002F58062934231D0A2F5687293422FD002
:10BA500002F5806293422DD0A2F5896293422BD0E9
:10BA600002F5806293422AD0A2F56872934229D0EF
:10BA700002F58062934228D0A2F58962934227D0D2
:10BA800002F58062934226D0A2F56872934231D0CB
:10BA900002F58062934202D04FF0806303E04FF4DE
:10BAA000801300E010230E4AD3600DE71023FAE75D
:10BAB0001023F8E71023F6E74FF48063F3E74FF421
:10BAC0008063F0E74FF48063EDE74FF48063EAE7CB
:10BAD0004FF48013E7E74FF48013E4E7106002406F
:10BAE000006002400064024058640240B8600240B6
:10BAF000586002404FF48013D5E7B24A934231D0E8
:10BB000002F58062934231D0A2F5687293422FD041
:10BB100002F5806293422DD0A2F5896293422BD028
:10BB200002F5806293422AD0A2F56872934229D02E
:10BB300002F58062934228D0A2F58962934227D011
:10BB400002F58062934226D0A2F56872934225D016
:10BB500002F58062934202D04FF0806303E04FF41D
:10BB6000801300E01023984A9360ADE61023FAE7B3
:10BB70001023F8E71023F6E74FF48063F3E74FF460
:10BB80008063F0E74FF48063EDE74FF48063EAE70A
:10BB90004FF48013E7E74FF48013E4E74FF480138A
:10BBA000E1E74FF4002200E00822884BDA602368C6
:10BBB000874A934240F2CE81A2F58962934200F017
:10BBC000678102F58062934200F0A981A2F5687254
:10BBD000934200F0A68102F58062934200F0A381B7
:10BBE000A2F58962934200F0A08102F5806293423F
:10BBF00000F09E81A2F56872934200F09C8102F5EC
:10BC00008062934200F09A81A2F58962934200F02B
:10BC1000988102F58062934200F09681A2F56872E5
:10BC2000934200F0948102F58062934200F02D81EE
:10BC30004FF080722DE10822B7E70822B5E708220D
:10BC4000B3E74FF40072B0E74FF40072ADE74FF482
:10BC50000072AAE74FF40072A7E74FF40022A4E7AE
:10BC60004FF40022A1E74FF400229EE7594A934285
:10BC700053D9A83A934231D002F58062934231D031
:10BC8000A2F5687293422FD002F5806293422DD0C4
:10BC9000A2F5896293422BD002F5806293422AD0AA
:10BCA000A2F56872934229D002F58062934228D0AF
:10BCB000A2F58962934227D002F58062934226D092
:10BCC000A2F56872934225D002F58062934202D0B9
:10BCD0004FF0007303E04FF4002300E008233B4AD9
:10BCE000936064E70823FAE70823F8E70823F6E7F8
:10BCF0004FF40073F3E74FF40073F0E74FF4007371
:10BD0000EDE74FF40073EAE74FF40023E7E74FF461
:10BD10000023E4E74FF40023E1E72F4A934260D980
:10BD2000483A934231D002F58062934231D0A2F575
:10BD3000687293422FD002F5806293422DD0A2F513
:10BD4000896293422BD002F5806293422AD0A2F5F9
:10BD50006872934229D002F58062934228D0A2F5FE
:10BD60008962934227D002F58062934226D0A2F5E1
:10BD70006872934232D002F58062934202D04FF053
:10BD8000007303E04FF4002300E008230E4AD36061
:10BD90000DE70823FAE70823F8E70823F6E74FF44E
:10BDA0000073F3E74FF40073F0E74FF40073EDE72F
:10BDB0004FF40073EAE74FF40023E7E74FF4002362
:10BDC000E4E700BF106002400060024000640240EF
:10BDD00058640240B8600240586002404FF40023AB
:10BDE000D4E7B24A934231D002F58062934231D017
:10BDF000A2F5687293422FD002F5806293422DD053
:10BE0000A2F5896293422BD002F5806293422AD038
:10BE1000A2F56872934229D002F58062934228D03D
:10BE2000A2F58962934227D002F58062934226D020
:10BE3000A2F56872934225D002F58062934202D047
:10BE40004FF0007303E04FF4002300E00823984A0A
:10BE50009360ACE60823FAE70823F8E70823F6E73F
:10BE60004FF40073F3E74FF40073F0E74FF40073FF
:10BE7000EDE74FF40073EAE74FF40023E7E74FF4F0
:10BE80000023E4E74FF40023E1E74FF4802200E0D1
:10BE90000422884BDA602368874A934240F2A181EA
:10BEA000A2F58962934200F0678102F580629342B5
:10BEB00000F08081A2F56872934200F07D8102F566
:10BEC0008062934200F07A81A2F58962934200F089
:10BED000778102F58062934200F07481A2F5687266
:10BEE000934200F0718102F58062934200F06E810E
:10BEF000A2F58962934200F06B8102F58062934261
:10BF000000F06981A2F56872934200F0678102F542
:10BF10008062934200F02D814FF480022DE10422D3
:10BF2000B7E70422B5E70422B3E74FF48072B0E725
:10BF30004FF48072ADE74FF48072AAE74FF480723D
:10BF4000A7E74FF48022A4E74FF48022A1E74FF443
:10BF500080229EE7594A934253D9A83A934231D05E
:10BF600002F58062934231D0A2F5687293422FD0DD
:10BF700002F5806293422DD0A2F5896293422BD0C4
:10BF800002F5806293422AD0A2F56872934229D0CA
:10BF900002F58062934228D0A2F58962934227D0AD
:10BFA00002F58062934226D0A2F56872934225D0B2
:10BFB00002F58062934202D04FF0807303E04FF4A9
:10BFC000802300E004233B4A936064E70423FAE7FC
:10BFD0000423F8E70423F6E74FF48073F3E74FF404
:10BFE0008073F0E74FF48073EDE74FF48073EAE776
:10BFF0004FF48023E7E74FF48023E4E74FF48023F6
:10C00000E1E72F4A934260D9483A934231D002F592
:10C010008062934231D0A2F5687293422FD002F52C
:10C02000806293422DD0A2F5896293422BD002F513
:10C03000806293422AD0A2F56872934229D002F519
:10C040008062934228D0A2F58962934227D002F5FC
:10C050008062934226D0A2F56872934232D002F5F4
:10C060008062934202D04FF0807303E04FF480234C
:10C0700000E004230E4AD3600DE70423FAE704230B
:10C08000F8E70423F6E74FF48073F3E74FF4807387
:10C09000F0E74FF48073EDE74FF48073EAE74FF475
:10C0A0008023E7E74FF48023E4E700BF10600240FD
:10C0B000006002400064024058640240B8600240E0
:10C0C000586002404FF48023D4E7994A934231D01C
:10C0D00002F58062934231D0A2F5687293422FD06C
:10C0E00002F5806293422DD0A2F5896293422BD053
:10C0F00002F5806293422AD0A2F56872934229D059
:10C1000002F58062934228D0A2F58962934227D03B
:10C1100002F58062934226D0A2F56872934225D040
:10C1200002F58062934202D04FF0807303E04FF437
:10C13000802300E004237F4A9360ACE60423FAE7FF
:10C140000423F8E70423F6E74FF48073F3E74FF492
:10C150008073F0E74FF48073EDE74FF48073EAE704
:10C160004FF48023E7E74FF48023E4E74FF4802384
:10C17000E1E74FF4803200E001226F4BDA60226881
:10C18000136843F0160313602268536943F0800379
:10C190005361236C002B00F025812268136843F063
:10C1A000080313602268136843F001031360002042
:10C1B000FFF7CAB90122E0E70122DEE70122DCE74E
:10C1C0004022DAE74022D8E74022D6E74022D4E7EF
:10C1D0004FF48032D1E74FF48032CEE74FF4803213
:10C1E000CBE7564A93424FD9A83A934231D002F551
:10C1F0008062934231D0A2F5687293422FD002F54B
:10C20000806293422DD0A2F5896293422BD002F531
:10C210008062934229D0A2F56872934227D002F53A
:10C220008062934225D0A2F58962934223D002F521
:10C230008062934222D0A2F56872934221D002F527
:10C240008062934202D04FF4800303E04FF48033C6
:10C2500000E00123384A936091E70123FAE70123C4
:10C26000F8E70123F6E74023F4E74023F2E7402311
:10C27000F0E74023EEE74FF48033EBE74FF48033F1
:10C28000E8E74FF48033E5E72D4A93425AD9483A1C
:10C29000934231D002F58062934231D0A2F56872A8
:10C2A00093422FD002F5806293422DD0A2F589628D
:10C2B00093422BD002F58062934229D0A2F5687296
:10C2C000934227D002F58062934225D0A2F589627D
:10C2D000934223D002F58062934222D0A2F5687285
:10C2E000934221D002F58062934202D04FF4800342
:10C2F00003E04FF4803300E001230E4AD3603EE7B1
:10C300000123FAE70123F8E70123F6E74023F4E7E6
:10C310004023F2E74023F0E74023EEE74FF4803379
:10C32000EBE74FF48033E8E74FF48033E5E700BFF5
:10C33000106002400060024000640240B8600240A9
:10C34000586002402B4A934231D002F580629342FA
:10C3500031D0A2F5687293422FD002F580629342E9
:10C360002DD0A2F5896293422BD002F580629342D0
:10C3700029D0A2F56872934227D002F580629342D9
:10C3800025D0A2F58962934223D002F580629342C0
:10C3900022D0A2F56872934221D002F580629342C6
:10C3A00002D04FF4800303E04FF4803300E0012318
:10C3B000114A9360E3E60123FAE70123F8E701233A
:10C3C000F6E74023F4E74023F2E74023F0E7402379
:10C3D000EEE74FF48033EBE74FF48033E8E74FF4B8
:10C3E0008033E5E7A36C002B7FF4D7AEDAE60220BA
:10C3F000FFF7AAB810600240006002401AB9036853
:10C40000D9600020704703681961FAE730B4056805
:10C410002C6824F480242C60046863608368402BBB
:10C4200005D0036899600368DA6030BC7047036820
:10C430009A600368D960F8E710B40368D9B210397C
:10C440000C4AA2FB014212090B4CA25CC2655F2997
:10C4500009D923F47F7323F0030304338365806DCC
:10C460005DF8044B704723F47F7323F00303836567
:10C47000F5E700BFABAAAAAA041A0100836A826981
:10C4800092B9012B0AD0022B02D00BB100207047C9
:10C49000C36A13F0807F28D100207047C36AB3F1CC
:10C4A000C07F24D000207047B2F5005F09D0022B76
:10C4B00025D9032B25D1C36A13F0807F23D1002017
:10C4C0007047032B03D8DFE803F01404140A00209C
:10C4D0007047C36A13F0807F0DD100207047C36A94
:10C4E000B3F1C07F09D000207047012070470120C0
:10C4F00070470120704701207047012070470120DC
:10C500007047002070470120704770B5044600F066
:10C51000BDFE002C5BD00546022384F83530002395
:10C5200084F834302268136823F001031360236811
:10C530001A6812F0010F0AD000F0A8FE431B052B69
:10C54000F5D920236365032084F8350070BD1A688F
:10C55000204911406268A0680243E06802432069F4
:10C56000024360690243A0690243E0690243206A12
:10C5700002430A43616A04291ED01A60266875695D
:10C5800025F00705636A1D43042B07D1A36A1D43E9
:10C59000E36A1BB12046FFF771FF90B97561204631
:10C5A000FFF74AFFE26D3F23934083600020606500
:10C5B000012384F83530C9E7E16A206B01430A435F
:10C5C000DBE740236365012084F83500BEE70120E6
:10C5D000BCE700BF3F8010F000282DD038B50546DD
:10C5E00090F83500C0B2022825D02A68136823F0DD
:10C5F000010313602B6800241C602B685C602B68AF
:10C600009C602B68DC602B681C612B6821225A61BE
:10C610002846FFF711FFEC632C646C64AC64EC6497
:10C620002C65EA6D3F23934083606C6585F8354047
:10C6300085F83440204638BD0120704738B504469F
:10C6400090F8340001281BD0012084F8340094F8BD
:10C650003500C0B2012804D0002384F83430022011
:10C6600038BD022084F83500002565652046FFF7B7
:10C67000CDFE2268136843F0010313602846EFE7FC
:10C680000220EDE738B50446856D90F834000128A6
:10C690002BD0012084F8340094F83500C0B2012872
:10C6A00004D0002384F83430022038BD022084F8FE
:10C6B0003500002060652046FFF7A8FEE26D3F23AD
:10C6C0009340AB602268136843F016031360236C39
:10C6D00023B12268136843F00803136022681368CB
:10C6E00043F0010313600020DFE70220DDE770B5AF
:10C6F0000446866D00F0CAFD94F83530DBB2022B9B
:10C7000006D080236365002384F83430012070BD97
:10C7100005462268136823F01603136022685369E4
:10C7200023F080035361236CE3B12268136823F084
:10C73000080313602268136823F001031360236861
:10C740001B6813F0010F11D000F0A0FD431B052B57
:10C75000F5D920236365032084F83500002384F88D
:10C760003430D4E7A36C002BDFD1E3E7E26D3F2345
:10C770009340B360012384F83530002084F83400FE
:10C78000C5E790F83530DBB2022B03D08023436538
:10C7900001207047052380F835300268136823F0C4
:10C7A00001031360002070472DE9F04704468846D6
:10C7B000164600F06BFD94F83530DBB2022B07D043
:10C7C00080236365002384F834300120BDE8F087BE
:10C7D000814623681B6813F4807F3BD1B8F1000FBA
:10C7E0003DD1E36D4FF0200A0AFA03FAA76D3B68CA
:10C7F0001AEA030F43D1636D13F0010F3FD1B6F175
:10C80000FF3F07D0002E30D000F040FDA0EB090024
:10C81000B0422AD83B68E16D08228A401A4204D00F
:10C82000616D41F001016165BA60E16D01228A40EC
:10C830001A4204D0616D41F002016165BA60E26D97
:10C84000042595401D42D3D0626D42F0040262651A
:10C85000BD60CDE74FF4807363650120B6E7E36DFB
:10C860004FF0100A0AFA03FAC0E720236365012398
:10C8700084F83530002384F834300320A6E7636D54
:10C880001BB1636D13F0010F0ED1B8F1000F19D178
:10C89000E26D30239340BB60012384F835300023E0
:10C8A00084F83430404691E72046FFF720FFE26DE0
:10C8B00030239340BB60012084F83500002384F8C6
:10C8C000343083E7E26D10239340BB6000207DE7A6
:10C8D000F0B583B0044600230193724B1D68724B80
:10C8E000A3FB0535AD0A876D3E68C26D08239340F2
:10C8F000334210D003681A6812F0040F0BD01A6884
:10C9000022F004021A60C26D08239340BB60436D9D
:10C9100043F001034365E26D01239340334209D0A4
:10C920002268526912F0800F04D0BB60636D43F03F
:10C9300002036365E26D04239340334209D0226809
:10C94000126812F0020F04D0BB60636D43F0040361
:10C950006365E26D10239340334224D0226812684D
:10C9600012F0080F1FD0BB6023681A6812F4802FE2
:10C970000DD01B6813F4002F04D1236C9BB120460B
:10C98000984710E0A36C73B1204698470BE01A68F3
:10C9900012F4807F03D11A6822F008021A60236C17
:10C9A0000BB120469847E26D20239340334255D087
:10C9B0002268126812F0100F50D0BB6094F8353026
:10C9C000DBB2052B0ED023681A6812F4802F33D007
:10C9D0001B6813F4002F2AD1636C002B3ED0204635
:10C9E00098473BE02268136823F01603136022681F
:10C9F000536923F080035361236CA3B12268136849
:10CA000023F008031360E26D3F239340BB600123D2
:10CA100084F83530002384F83430236D002B3FD068
:10CA2000204698473CE0A36C002BE7D1EBE7E36B93
:10CA3000A3B12046984711E01A6812F4807F09D10B
:10CA40001A6822F010021A60012384F8353000239E
:10CA500084F83430E36B0BB120469847636DFBB12B
:10CA6000636D13F0010F17D0052384F83530226869
:10CA7000136823F001031360019B01330193AB4260
:10CA800004D823681B6813F0010FF5D1012384F843
:10CA90003530002384F83430E36C0BB120469847DE
:10CAA00003B0F0BD801A0200B5814E1B034690F81A
:10CAB0003400012825D0012083F8340093F8350094
:10CAC000C0B2012804D00120002283F8342070472E
:10CAD0000529F9D8DFE801F00306090C0F12DA6323
:10CAE0000846F1E71A640020EEE75A640020EBE7FD
:10CAF0009A640020E8E7DA640020E5E71A65002080
:10CB0000E2E702207047034690F83420012A2FD034
:10CB1000012280F8342090F83500C0B2904204D051
:10CB20000120002283F8342070470629F9D8DFE875
:10CB300001F004080B0E111417000022DA630846F6
:10CB4000EFE700201864ECE700205864E9E70020D4
:10CB50009864E6E70020D864E3E700201865E0E782
:10CB60000020D863186458649864D8641865D8E7BE
:10CB70000220704790F835007047406D704700BF45
:10CB8000044B1A6A42F080521A621A6A22F08052EA
:10CB90001A6270470038024082B0044B01221A62C8
:10CBA000034B1B680193019B02B0704700000E42CB
:10CBB0000070004082B0044B00221A62034B1B68D5
:10CBC0000193019B02B0704700000E4200700040CC
:10CBD0001E4A136823F0E00301680B4313601C4BEB
:10CBE0005A6822F480325A601A6822F480321A603D
:10CBF0009A6822F480329A60DA6822F48032DA602D
:10CC0000436813F4803F04D0114A136843F480331F
:10CC10001360436813F4003F04D00D4A536843F493
:10CC200080335360436813F0010F04D0084A9368BF
:10CC300043F480339360436813F0020F04D0044A36
:10CC4000D36843F48033D360704700BF0070004066
:10CC5000003C0140014B01221A61704700000E4266
:10CC6000014B00221A61704700000E42024A5368CD
:10CC700003435360704700BF00700040024A53688E
:10CC800023EA00035360704700700040064A1369AE
:10CC900023F004031361012903D040BF20BF20BF4C
:10CCA000704730BF704700BF00ED00E00B4A1368CB
:10CCB00023F0030303431360094A136943F0040399
:10CCC0001361012908D040BF20BF20BF044A136967
:10CCD00023F004031361704730BFF7E70070004092
:10CCE00000ED00E0054A136843F002031360044AB4
:10CCF000136943F00403136130BF704700700040B4
:10CD000000ED00E0704708B5064B5B6913F4803F07
:10CD100000D108BDFFF7F6FF024B4FF480325A6195
:10CD2000F7E700BF003C0140024A136943F00203E9
:10CD30001361704700ED00E0024A136923F002031B
:10CD40001361704700ED00E0024A136943F01003DD
:10CD50001361704700ED00E0024A136923F01003ED
:10CD60001361704700ED00E010B50B4B0122C3F8D2
:10CD7000A42000F08BFA0446084B5B6813F0080F00
:10CD800007D100F083FA001BB0F57A7FF4D90320B5
:10CD900000E0002010BD00BF00000E420070004007
:10CDA00010B50B4B0022C3F8A42000F06FFA044624
:10CDB000084B5B6813F0080F07D000F067FA001B00
:10CDC000B0F57A7FF4D9032000E0002010BD00BF49
:10CDD00000000E4200700040014B01225A62704771
:10CDE00000000E42014B00225A62704700000E42C2
:10CDF000024B186800F44040704700BF00700040CC
:10CE000030B583B0002300932A4B1A6C42F0805255
:10CE10001A641A6C02F080520092009A9B6803F028
:10CE20000C03082B43D00546234B00221A6600F062
:10CE30002DFA04461F4B1B6813F0007F06D000F04C
:10CE400025FA031B022BF5D9032031E000230193BF
:10CE50001A4A136823F440432B431360136803F406
:10CE600040430193019B144B01221A6600F00EFA15
:10CE70000446104B1B6813F0007F06D100F006FA41
:10CE8000001B0228F5D9032012E000F0FFF9044648
:10CE90000A4B5B6813F4804F07D100F0F7F9001BD1
:10CEA000B0F57A7FF4D9032002E0002000E00120F1
:10CEB00003B030BD0038024000004742007000401F
:10CEC000014B0122DA62704700000E42014B002242
:10CED000DA62704700000E42014B01229A627047ED
:10CEE00000000E42014B00229A62704700000E4281
:10CEF000074AD36823F4E0631B041B0C000200F410
:10CF0000E060034343F0BF6343F40033D3607047F2
:10CF100000ED00E000B5194BDB68C3F30223C3F159
:10CF2000070CBCF1040F28BF4FF0040C03F1040EF2
:10CF3000BEF1060F18D9033B4FF0FF3E0EFA0CFC72
:10CF400021EA0C0199400EFA03FE22EA0E020A437E
:10CF500000280BDB1201D2B200F1604000F5614005
:10CF600080F800235DF804FB0023E5E700F00F00E4
:10CF70001201D2B2024B1A54F4E700BF00ED00E0F8
:10CF800014ED00E0002807DB00F01F024009012338
:10CF90009340024A42F82030704700BF00E100E0B1
:10CFA00000280CDB00F01F024009012393402030D1
:10CFB000034A42F82030BFF34F8FBFF36F8F7047A3
:10CFC00000E100E0BFF34F8F0549CA6802F4E06258
:10CFD000044B1343CB60BFF34F8F00BFFDE700BF8F
:10CFE00000ED00E00400FA050138B0F1807F0BD2BB
:10CFF0004FF0E0235861054AF02182F82310002009
:10D00000986107221A6170470120704700ED00E027
:10D01000BFF35F8F044B5A6A22F480325A620022B7
:10D02000C3F89420704700BF00ED00E040F001001D
:10D03000054BC3F894005A6A42F480325A62BFF337
:10D040004F8FBFF36F8F704700ED00E04278164BB3
:10D05000C3F898200378FBB14368134AC2F89C30A8
:10D06000017BC37A1B0643EA0173817A43EAC14319
:10D07000417B43EA8143817B43EA4143C17B43EAED
:10D080000143417A43EA0123017A43EA41030178EB
:10D090000B43C2F8A0307047034B0022C3F89C201A
:10D0A000C3F8A020704700BF00ED00E0024BD86835
:10D0B000C0F30220704700BF00ED00E010B500286B
:10D0C00022DB00F1604000F5614090F800030009A8
:10D0D00001F00701C1F1070CBCF1040F28BF4FF0AC
:10D0E000040C0C1D062C15D9033920FA01F44FF05D
:10D0F000FF3E0EFA0CFC24EA0C0414600EFA01FE4A
:10D1000020EA0E00186010BD00F00F00024C205CF9
:10D110000009DDE70021E8E714ED00E0002808DB66
:10D1200000F01F024009012393404030014A42F8B9
:10D130002030704700E100E000280BDB430940335A
:10D14000054A52F8233000F01F0023FA00F000F0E7
:10D15000010070470020704700E100E0002808DB74
:10D1600000F01F024009012393406030014A42F859
:10D170002030704700E100E000280BDB43098033DA
:10D18000054A52F8233000F01F0023FA00F000F0A7
:10D19000010070470020704700E100E0042806D03D
:10D1A0004FF0E022136923F00403136170474FF03E
:10D1B000E022136943F0040313617047704708B518
:10D1C000FFF7FCFF08BD00BF7047704710B5094B63
:10D1D0004FF0FF321A6200241C625A625C621A61CC
:10D1E0001C615A615C619A619C61FFF7EEFF204609
:10D1F00010BD00BF0038024010B504460E4B1A782F
:10D200004FF47A73B3FBF2F30C4A1068B0FBF3F0FF
:10D21000FFF7EAFE68B90F2C01D901200AE00022CD
:10D2200021464FF0FF30FFF775FE034B5C60002096
:10D2300000E0012010BD00BF781A0200801A020031
:10D2400008B50B4B1A6842F400721A601A6842F46F
:10D2500080621A601A6842F480721A600320FFF735
:10D2600047FE0020FFF7C8FFFBF728F9002008BDA4
:10D27000003C0240034A1168034B1B780B441360C7
:10D28000704700BF38220200781A0200014B18686C
:10D29000704700BF38220200014B5868704700BF3A
:10D2A000781A020010B5074B1C78844201D1002087
:10D2B00010BD18705868FFF79FFF0028F8D0014B89
:10D2C0001C70F5E7781A0200014B1878704700BF10
:10D2D000781A020038B50446FFF7D8FF0546B4F1C6
:10D2E000FF3F02D0044B1B781C44FFF7CFFF401BCD
:10D2F000A042FAD338BD00BF781A02004FF0E022F6
:10D30000136923F00203136170474FF0E0221369A1
:10D3100043F00203136170474FF084707047024B73
:10D320001868000C704700BF002004E0024B18682A
:10D33000C0F30B00704700BF002004E0024A5368AE
:10D3400043F0010353607047002004E0024A536831
:10D3500023F0010353607047002004E0024A536841
:10D3600043F0020353607047002004E0024A536810
:10D3700023F0020353607047002004E0024A536820
:10D3800043F0040353607047002004E0024A5368EE
:10D3900023F0040353607047002004E0024B012295
:10D3A000C3F80024704700BF00002742024B002250
:10D3B000C3F80024704700BF00002742014BD3F898
:10D3C000100A70470070FF1F014BD3F8140A704712
:10D3D0000070FF1F014BD3F8180A70470070FF1F41
:10D3E000002860D0002960D070B40B68036003F09F
:10D3F0001F020120904013F0007F15D08C6814F0BC
:10D40000010F24D02A4DAC680443AC608C6814F042
:10D41000020F22D0264DEC680443EC600C6804F047
:10D42000C06CBCF1C06F1ED04B6813F0010F2DD043
:10D430001F4A1368034313604B6813F0020F2BD08D
:10D440001B4A536803435360002070BC7047184D5B
:10D45000AC6824EA0004AC60D8E7154DEC6824EA17
:10D460000004EC60DAE79208124E023256F82240CD
:10D4700003F003039B000F259D4024EA0504CD68BB
:10D4800005FA03F3234346F82230CDE7084A136830
:10D4900023EA00031360CFE7054A536823EA000339
:10D4A00053600020D1E7012070470120704700BF82
:10D4B000003C014000380140002846D0002946D0F9
:10D4C0000068086000F01F0C012303FA0CF3224AE5
:10D4D00012681A4224D001224A601F4A52681A4236
:10D4E00003D04A6842F002024A6000228A60CA60A1
:10D4F00010F0007F2DD0184A92681A4201D0012204
:10D500008A60154AD2681A4203D08B6843F002033E
:10D510008B6000F0C063B3F1C06F04D0002070478F
:10D5200000224A60D9E74FEA9C0302330B4A52F8C3
:10D53000232012046FEA0C0303F003039B0002FA9A
:10D5400003F31B0FCB6000207047012070470120C0
:10D5500070470020704700BF003C01400038014088
:10D56000002837D010B58446046804F01F0001235A
:10D5700083401A4A11686FEA030E21EA0301116021
:10D58000516821EA03035360DCF8003013F0007F98
:10D5900022D093680EEA03039360D3680EEA030374
:10D5A000D360DCF8003003F0C063B3F1C06F01D08A
:10D5B000002012E080080A49023051F8203004F0BF
:10D5C0000304A4000F22A24023EA020341F8203002
:10D5D000002002E001207047002010BD003C014007
:10D5E000003801400346084609B95A6070470120D7
:10D5F000704710B10160002070470120704708B5E6
:10D60000036803F01F0201239340054A52691A423E
:10D6100004D0034A5361436803B1984708BD00BF73
:10D62000003C0140036803F01F0301229A400249B5
:10D6300048691040D8407047003C0140026802F041
:10D640001F0201239340014A53617047003C01408F
:10D65000026802F01F0201239340014A13617047E0
:10D66000003C0140034AD2F8883043F47003C2F80A
:10D670008830704700ED00E0224B9B6803F00C03FC
:10D68000042B14D0082B16D01BB11F4B1F4A1A6055
:10D6900002E01D4B1D4A1A601A4B9B68C3F303132B
:10D6A0001B4AD15C184A1368CB4013607047164B75
:10D6B000184A1A60F0E7134B59685A6802F03F02A3
:10D6C00011F4800F13D0134BB3FBF2F30D4A5268E1
:10D6D000C2F3881202FB03F30A4A5268C2F3014202
:10D6E00001325200B3FBF2F3074A1360D4E7074B51
:10D6F000B3FBF2F3034A5268C2F3881202FB03F34E
:10D70000EAE700BF00380240801A02000024F4005B
:10D710000C1A010000127A00000000000000000056
:10D7200082B0002301930D4B1B68B3F1FF3F08D07B
:10D730004FF0500383F31188BFF36F8FBFF34F8F08
:10D74000FEE74FF0500383F31188BFF36F8FBFF3F1
:10D750004F8F019B002BFCD002B07047841A02004F
:10D7600008480068006880F308884FF0000080F3E4
:10D77000148862B661B6BFF34F8FBFF36F8F00DFBF
:10D7800000BF000008ED00E0DFF80C00016841F484
:10D79000700101607047000088ED00E04FF0807379
:10D7A00040F8043C21F0010140F8081C054B40F80A
:10D7B0000C3C40F8202C6FF0020340F8243C443825
:10D7C000704700BF21D70000094B19680868B0E80E
:10D7D000F04F80F30988BFF36F8F4FF0000080F3A4
:10D7E00011887047AFF30080AFF30080AFF3008083
:10D7F0001C230200074B1B68B3F57A7F08D04FF05B
:10D80000500383F31188BFF36F8FBFF34F8FFEE791
:10D81000704700BF841A02004FF0500383F3118851
:10D82000BFF36F8FBFF34F8F0B4A13680133136041
:10D83000012B00D070474FF0E023D3F8043D13F0E4
:10D84000FF0FF7D04FF0500383F31188BFF36F8FB2
:10D85000BFF34F8FFEE700BF841A0200094B1B681D
:10D8600043B94FF0500383F31188BFF36F8FBFF3B9
:10D870004F8FFEE7013B034A13600BB983F3118816
:10D88000704700BF841A0200EFF30980BFF36F8F67
:10D89000174B1A681EF0100F08BF20ED108A20E900
:10D8A000F04F10602DE909004FF0500080F311880F
:10D8B000BFF34F8FBFF36F8F00F098FF4FF0000062
:10D8C00080F3118809BC19680868B0E8F04F1EF0B1
:10D8D000100F08BFB0EC108A80F30988BFF36F8F78
:10D8E000704700BFAFF30080AFF30080AFF300805C
:10D8F0001C23020008B54FF0500383F31188BFF3D7
:10D900006F8FBFF34F8F00F06FFD28B14FF0E02312
:10D910004FF08052C3F8042D002383F3118808BD13
:10D920004FF0E022002313619361054B1B6805490A
:10D93000A1FB03139B09013B53610723136170474C
:10D94000801A0200D34D62104FF0E023D3F8002D6F
:10D950003D4B9A421BD04FF0E023D3F8002D3B4BB8
:10D960009A421DD030B583B0394B1A78D2B20192A9
:10D97000FF221A701B78DBB28DF803309DF803305C
:10D9800003F05003334A1370072353601BE04FF03A
:10D99000500383F31188BFF36F8FBFF34F8FFEE700
:10D9A0004FF0500383F31188BFF36F8FBFF34F8F96
:10D9B000FEE7284A5368013B53609DF803305B0043
:10D9C000DBB28DF803309DF8033013F0800FF0D1F7
:10D9D000204B5B68032B08D04FF0500383F3118872
:10D9E000BFF36F8FBFF34F8FFEE71B02194A5360DF
:10D9F00003F4E0635360019BDBB2154A13704FF0F0
:10DA0000E024D4F8203D43F47003C4F8203DD4F85A
:10DA1000203D43F07043C4F8203DFFF781FF00250F
:10DA20000D4B1D60FFF7B0FED4F8343F43F0404388
:10DA3000C4F8343FFFF794FE00F0D8FEFFF770FE05
:10DA4000284603B030BD00BF71C20F4170C20F4104
:10DA500000E400E03C220200841A0200EFF3058398
:10DA60000F2B0FD9114A9B5CDBB2114A12789A42F4
:10DA700008D94FF0500383F31188BFF36F8FBFF3C2
:10DA80004F8FFEE74FF0E023D3F80C3D03F4E06343
:10DA9000074A5268934208D94FF0500383F3118824
:10DAA000BFF36F8FBFF34F8FFEE77047F0E300E0E7
:10DAB0003C22020028B141690C4A91420AD0002060
:10DAC00070474FF0500383F31188BFF36F8FBFF39C
:10DAD0004F8FFEE7836A1432934202D01BB10020BD
